{
  "address": "0xd5E618f921Fe744402e3b01712C651D9EFE81AF6",
  "abi": [
    {
      "inputs": [
        {
          "internalType": "address",
          "name": "logic",
          "type": "address"
        },
        {
          "internalType": "uint256",
          "name": "premint",
          "type": "uint256"
        }
      ],
      "stateMutability": "nonpayable",
      "type": "constructor"
    },
    {
      "anonymous": false,
      "inputs": [
        {
          "indexed": false,
          "internalType": "address",
          "name": "previousAdmin",
          "type": "address"
        },
        {
          "indexed": false,
          "internalType": "address",
          "name": "newAdmin",
          "type": "address"
        }
      ],
      "name": "AdminChanged",
      "type": "event"
    },
    {
      "anonymous": false,
      "inputs": [
        {
          "indexed": true,
          "internalType": "address",
          "name": "beacon",
          "type": "address"
        }
      ],
      "name": "BeaconUpgraded",
      "type": "event"
    },
    {
      "anonymous": false,
      "inputs": [
        {
          "indexed": true,
          "internalType": "address",
          "name": "implementation",
          "type": "address"
        }
      ],
      "name": "Upgraded",
      "type": "event"
    },
    {
      "stateMutability": "payable",
      "type": "fallback"
    },
    {
      "inputs": [],
      "name": "changeAdmin",
      "outputs": [],
      "stateMutability": "nonpayable",
      "type": "function"
    },
    {
      "inputs": [
        {
          "internalType": "uint256",
          "name": "salt_",
          "type": "uint256"
        }
      ],
      "name": "setFailsafeAdmin",
      "outputs": [],
      "stateMutability": "nonpayable",
      "type": "function"
    },
    {
      "inputs": [
        {
          "internalType": "address",
          "name": "newImplementation",
          "type": "address"
        }
      ],
      "name": "upgradeTo",
      "outputs": [],
      "stateMutability": "nonpayable",
      "type": "function"
    },
    {
      "stateMutability": "payable",
      "type": "receive"
    }
  ],
  "transactionHash": "0xb91059d2a6dde916b58dbe3b7349d361a3aab83a0f2f17733b45526586e2cc18",
  "args": [
    "0x78B72e20C2fAFbf4BF71BB57c928c60f079057Ad",
    "1000000000000000000000000"
  ],
  "numDeployments": 1,
  "solcInputHash": "134a380479f5e2db55cdf16d0416634b",
  "bytecode": "0x60806040523480156200001157600080fd5b5060405162000c2d38038062000c2d83398101604081905262000034916200047c565b6040805160248082018490528251808303909101815260449091019091526020810180516001600160e01b0390811663fe4b84df60e01b179091528391906200008590839083906000906200009b16565b5062000093905033620000d8565b50506200053a565b620000a68362000133565b600082511180620000b45750805b15620000d357620000d183836200017560201b620001cb1760201c565b505b505050565b7f7e644d79422f17c01e4894b5f4f588d331ebfa28653d42ae832dc59e38c9798f62000103620001a4565b604080516001600160a01b03928316815291841660208301520160405180910390a16200013081620001dd565b50565b6200013e8162000292565b6040516001600160a01b038216907fbc7cd75a20ee27fd9adebab32041f755214dbc6bffa90cc0225b39da2e5c2d3b90600090a250565b60606200019d838360405180606001604052806027815260200162000c066027913962000346565b9392505050565b6000620001ce60008051602062000be683398151915260001b6200042c60201b620001f71760201c565b546001600160a01b0316919050565b6001600160a01b038116620002485760405162461bcd60e51b815260206004820152602660248201527f455243313936373a206e65772061646d696e20697320746865207a65726f206160448201526564647265737360d01b60648201526084015b60405180910390fd5b806200027160008051602062000be683398151915260001b6200042c60201b620001f71760201c565b80546001600160a01b0319166001600160a01b039290921691909117905550565b620002a8816200042f60201b620001fa1760201c565b6200030c5760405162461bcd60e51b815260206004820152602d60248201527f455243313936373a206e657720696d706c656d656e746174696f6e206973206e60448201526c1bdd08184818dbdb9d1c9858dd609a1b60648201526084016200023f565b80620002717f360894a13ba1a3210667c828492db98dca3e2076cc3735a920a3ca505d382bbc60001b6200042c60201b620001f71760201c565b60606001600160a01b0384163b620003b05760405162461bcd60e51b815260206004820152602660248201527f416464726573733a2064656c65676174652063616c6c20746f206e6f6e2d636f6044820152651b9d1c9858dd60d21b60648201526084016200023f565b600080856001600160a01b031685604051620003cd9190620004e7565b600060405180830381855af49150503d80600081146200040a576040519150601f19603f3d011682016040523d82523d6000602084013e6200040f565b606091505b509092509050620004228282866200043e565b9695505050505050565b90565b6001600160a01b03163b151590565b606083156200044f5750816200019d565b825115620004605782518084602001fd5b8160405162461bcd60e51b81526004016200023f919062000505565b600080604083850312156200049057600080fd5b82516001600160a01b0381168114620004a857600080fd5b6020939093015192949293505050565b60005b83811015620004d5578181015183820152602001620004bb565b83811115620000d15750506000910152565b60008251620004fb818460208701620004b8565b9190910192915050565b602081526000825180602084015262000526816040850160208701620004b8565b601f01601f19169190910160400192915050565b61069c806200054a6000396000f3fe6080604052600436106100385760003560e01c80633659cfe61461004f5780633f2435f11461006f578063663261d71461008f57610047565b36610047576100456100a4565b005b6100456100a4565b34801561005b57600080fd5b5061004561006a36600461057e565b6100b6565b34801561007b57600080fd5b5061004561008a3660046105a7565b610113565b34801561009b57600080fd5b5061004561015b565b6100b46100af610209565b610218565b565b336100bf61023c565b6001600160a01b0316146101075760405162461bcd60e51b815260206004820152600a60248201526941444d494e5f4f4e4c5960b01b60448201526064015b60405180910390fd5b6101108161026f565b50565b806101565760405162461bcd60e51b815260206004820152601360248201527253414c545f43414e4e4f545f42455f5a45524f60681b60448201526064016100fe565b600055565b61016361023c565b604080516001600160a01b0392909216602080840191909152815180840382018152838301909252815191012060005460608301523360808301529060a00160405160208183030381529060405280519060200120146101c257600080fd5b6100b4336102af565b60606101f0838360405180606001604052806027815260200161064060279139610303565b9392505050565b90565b6001600160a01b03163b151590565b60006102136103e0565b905090565b3660008037600080366000845af43d6000803e808015610237573d6000f35b3d6000fd5b60007fb53127684a568b3173ae13b9f8a6016e243e63b6e8ee1178d6a717850b5d61035b546001600160a01b0316919050565b61027881610408565b6040516001600160a01b038216907fbc7cd75a20ee27fd9adebab32041f755214dbc6bffa90cc0225b39da2e5c2d3b90600090a250565b7f7e644d79422f17c01e4894b5f4f588d331ebfa28653d42ae832dc59e38c9798f6102d861023c565b604080516001600160a01b03928316815291841660208301520160405180910390a1610110816104b9565b60606001600160a01b0384163b61036b5760405162461bcd60e51b815260206004820152602660248201527f416464726573733a2064656c65676174652063616c6c20746f206e6f6e2d636f6044820152651b9d1c9858dd60d21b60648201526084016100fe565b600080856001600160a01b03168560405161038691906105f0565b600060405180830381855af49150503d80600081146103c1576040519150601f19603f3d011682016040523d82523d6000602084013e6103c6565b606091505b50915091506103d6828286610545565b9695505050505050565b60007f360894a13ba1a3210667c828492db98dca3e2076cc3735a920a3ca505d382bbc610260565b6001600160a01b0381163b6104755760405162461bcd60e51b815260206004820152602d60248201527f455243313936373a206e657720696d706c656d656e746174696f6e206973206e60448201526c1bdd08184818dbdb9d1c9858dd609a1b60648201526084016100fe565b807f360894a13ba1a3210667c828492db98dca3e2076cc3735a920a3ca505d382bbc5b80546001600160a01b0319166001600160a01b039290921691909117905550565b6001600160a01b03811661051e5760405162461bcd60e51b815260206004820152602660248201527f455243313936373a206e65772061646d696e20697320746865207a65726f206160448201526564647265737360d01b60648201526084016100fe565b807fb53127684a568b3173ae13b9f8a6016e243e63b6e8ee1178d6a717850b5d6103610498565b606083156105545750816101f0565b8251156105645782518084602001fd5b8160405162461bcd60e51b81526004016100fe919061060c565b60006020828403121561059057600080fd5b81356001600160a01b03811681146101f057600080fd5b6000602082840312156105b957600080fd5b5035919050565b60005b838110156105db5781810151838201526020016105c3565b838111156105ea576000848401525b50505050565b600082516106028184602087016105c0565b9190910192915050565b602081526000825180602084015261062b8160408501602087016105c0565b601f01601f1916919091016040019291505056fe416464726573733a206c6f772d6c6576656c2064656c65676174652063616c6c206661696c6564a2646970667358221220b100dddb83c9a9ba53788f5a43e6b2c78f7ed24cf3bf7a7ee7200352b25b2c4d64736f6c634300080a0033b53127684a568b3173ae13b9f8a6016e243e63b6e8ee1178d6a717850b5d6103416464726573733a206c6f772d6c6576656c2064656c65676174652063616c6c206661696c6564",
  "devdoc": {
    "kind": "dev",
    "methods": {},
    "version": 1
  },
  "userdoc": {
    "kind": "user",
    "methods": {},
    "version": 1
  },
  "storageLayout": {
    "storage": [
      {
        "astId": 1895,
        "contract": "contracts/BucketsProxy.sol:BucketsProxy",
        "label": "salt",
        "offset": 0,
        "slot": "0",
        "type": "t_uint256"
      }
    ],
    "types": {
      "t_uint256": {
        "encoding": "inplace",
        "label": "uint256",
        "numberOfBytes": "32"
      }
    }
  }
}