{
  "address": "0xb5923039Df253F888A77badC2DE1B93BD5c0dcd9",
  "abi": [
    {
      "inputs": [],
      "name": "totalSupply",
      "outputs": [],
      "stateMutability": "pure",
      "type": "function"
    }
  ],
  "transactionHash": "0x40e36d75270f9f0abaec6976f53d6132a86249661b1d17bab24097e438f69549",
  "args": [],
  "numDeployments": 1,
  "solcInputHash": "61c3f9717b38f1c555f3f9ef76c5b53e",
  "bytecode": "0x6080604052348015600f57600080fd5b50606c80601d6000396000f3fe6080604052348015600f57600080fd5b506004361060285760003560e01c806318160ddd14602d575b600080fd5b6034600080fd5b00fea26469706673582212204dcd3dd4a1989854288f24787fbb77e1d2098495d81de937dc5d3451a3b3139064736f6c634300080a0033",
  "devdoc": {
    "kind": "dev",
    "methods": {},
    "version": 1
  },
  "userdoc": {
    "kind": "user",
    "methods": {},
    "version": 1
  },
  "storageLayout": {
    "storage": [],
    "types": null
  }
}